:0A11ED0000010202030304040505DB
:10049C00E4F52CF52BF52AF529C203C200C202C2E1
:1004AC0001120AB87E0C7F008E0A8F0B75120C7528
:1004BC00131275080C75091C75100C751135751413
:1004CC000C75154EEE54C0700302059D752D00750C
:1004DC002E808E2F8F30C374809FFF740C9ECF2480
:1004EC0002CF3400FEE48F288E27F526F525F5245F
:1004FC00F523F522F521AF28AE27AD26AC25AB248C
:10050C00AA23A922A821C312074F5033E530252472
:10051C00F582E52F3523F583E0FFE52E2524F582C2
:10052C00E52D3523F583EFF0E5242401F524E4359E
:10053C0023F523E43522F522E43521F52180B78516
:10054C002D0A852E0B74002480FF740C34FFFEC31F
:10055C00E5139FF513E5129EF512C3E50D9FF50DFE
:10056C00E50C9EF50CC3E50F9FF50FE50E9EF50E01
:10057C00C3E5099FF509E5089EF508C3E5119FF54C
:10058C0011E5109EF510C3E5159FF515E5149EF5C4
:10059C0014D2E843D82090E668E04409F090E65C79
:1005AC00E0443DF0D2AF90E680E020E10CD20512A1
:1005BC0010427FF47E01120E5190E680E054F7F069
:1005CC00538EF8C203300105120080C2013003299A
:1005DC001212175024C20312111B20001690E6822F
:1005EC00E030E704E020E1EF90E682E030E604E062
:0E05FC0020E0E4121071121219120CEC80C7EC
:0B11E20090E50DE030E402C322D322B0
:1000800090E6B9E0700302013F1470030201BC2442
:10009000FE700302023F24FB700302013914700357
:1000A00002013314700302012714700302012D248E
:1000B0000560030202A412121B40030202B090E684
:1000C000BBE024FE602714603824FD601114602713
:1000D00024067050E50A90E6B3F0E50B803C12115F
:1000E000E2503EE51290E6B3F0E513802DE50C906A
:1000F000E6B3F0E50D8023E50E90E6B3F0E50F8062
:100100001990E6BAE0FF1210C9AA06A9077B01EA16
:10011000494B600DEE90E6B3F0EF90E6B4F00202CA
:10012000B002029F02029F1211D00202B01211FF10
:100130000202B01211F70202B01211BE0202B01296
:10014000121D40030202B090E6B8E0247F6015144F
:10015000601924027063A200E43325E0FFA202E4E8
:10016000334F8041E490E740F0803F90E6BCE0549C
:100170007EFF7E00E0D394807C0040047D018002FD
:100180007D00EC4EFEED4F24EDF58274113EF583BB
:10019000E493FF3395E0FEEF24A1FFEE34E68F8277
:1001A000F583E0540190E740F0E4A3F090E68AF094
:1001B00090E68B7402F00202B002029F12121F40FE
:1001C000030202B090E6B8E024FE60162402600349
:1001D0000202B090E6BAE0B40105C2000202B00229
:1001E000029F90E6BAE0705590E6BCE0547EFF7E38
:1001F00000E0D394807C0040047D0180027D00EC0F
:100200004EFEED4F24EDF58274113EF583E493FF2D
:100210003395E0FEEF24A1FFEE34E68F82F583E014
:1002200054FEF090E6BCE05480131313541FFFE01B
:10023000540F2F90E683F0E04420F080738060122A
:100240001221506C90E6B8E024FE601A2402704F30
:1002500090E6BAE0B40104D200805590E6BAE0B46A
:100260000202804C803990E6BCE0547EFF7E00E0C4
:10027000D394807C0040047D0180027D00EC4EFE22
:10028000ED4F24EDF58274113EF583E493FF339531
:10029000E0FEEF24A1FFEE34E68F82F583800D901F
:1002A000E6A080081202B8500790E6A0E04401F0F2
:0702B00090E6A0E04480F09D
:0102B7002224
:0300330002120FA7
:04120F0053D8EF328F
:100C00001201000200000040A92A00900100010228
:100C100000010A060002000000400100090219005C
:100C200001010080FA0904000001FF00000007052F
:100C30008202000200090219000101008032090449
:100C4000000001FF000000070582024000000403CD
:100C50000904080349004300490026033900300015
:100C6000300030002000530045005200490045008C
:100C700053002000430041004D0045005200410058
:020C8000000072
:10086800608014000101010101010107000000007E
:100878000000000000000000000000000000000070
:100888000000003F01010101010101070000000013
:100898000000000000000000000000000000000050
:1008A8000000003F81919CAF97AA01070101010355
:1008B8000101000000000000000000000000090025
:1008C8000009003F010101010101010700000000CA
:1008D8000000000000000000000000000000000010
:1008E8000000003F602414870000000000000000A2
:1008F80000000000000000000000000000000000F0
:10090800000000000000000000000000471480E024
:06091800100000EE4E008D
:10092A0000000090E60174CAF090E6F574FFF090BA
:10093A001480E090E6F3F0901481E090E6C3F09022
:10094A001482E090E6C1F0901483E090E6C2F09041
:10095A001485E090E6C0F0901486E090E6F4F07515
:10096A00AF077414F59A7400F59B759DE4E4F59E3F
:10097A00FF90E67BE090E67CF00FBF80F490E67192
:10098A0074FFF0F5B490E672E04480F043B680005C
:10099A000000E490E6C4F000000090E6C5F0901470
:1009AA0087E090E6C6F0901488E090E6C7F09014CD
:1009BA0089E090E6C8F090148AE090E6C9F09014B5
:1009CA008BE090E6CAF090148CE090E6CBF090149D
:0E09DA008DE090E6CCF090148EE090E6CDF02B
:0109E80022EC
:1010710090E682E030E004E020E60B90E682E0308A
:10108100E119E030E71590E680E04401F07F147E3D
:0C10910000120E5190E680E054FEF022A8
:1010420030050990E680E0440AF0800790E680E0EF
:101052004408F07FDC7E05120E5190E65D74FFF0CD
:0F10620090E65FF05391EF90E680E054F7F022B4
:100E51008E318F3290E600E054187012E532240191
:100E6100FFE43531C313F531EF13F532801590E608
:100E710000E05418FFBF100BE53225E0F532E531F3
:100E810033F531E5321532AE31700215314E600560
:060E910012112F80EE2279
:0210C900A90775
:1010CB00AE14AF158F828E83A3E064037017AD014E
:1010DB0019ED7001228F828E83E07C002FFDEC3E98
:0810EB00FEAF0580DFE4FEFF0B
:0110F30022DA
:10111B0090E682E044C0F090E681F0438701000046
:04112B00000000229E
:10112F007400F58690FDA57C05A3E582458370F9D3
:01113F00228D
:03004300020A00AE
:03005300020A009E
:100A0000021178000211A8000209E9000211900009
:100A1000020F0C00020E97000209FF00020BFF00FC
:100A200002122300021224000212250002122600E4
:100A300002122700021228000212290002122A00C4
:100A400002101200020BFF0002122B0002122C00F7
:100A500002122D0002122E0002122F00021230008C
:100A600002123100020BFF00020BFF00020BFF001D
:100A70000212320002123300021234000212350058
:100A80000212360002123700021238000212390038
:100A900002123A0002123B0002123C0002123D0018
:100AA00002123E0002123F000212400002124100F8
:080AB000021242000212430091
:04121300011000EFD7
:0B091E00011832C104011918011B511F
:100F420043B2027580FDE4FE000EBE20FBE4FDEF1D
:100F520030E00575800280037580FDE4FE000EBE60
:100F620020FBEFC313FF0DBD08E5758002E4FE0010
:040F72000EBE20FB94
:010F76002258
:100E0700E5BB30E74490E680E030E73D000000E4D2
:100E170090E6CFF000000090E6D0F000000090E6EA
:100E2700D104F0000000E58054089014C5F075BBAC
:100E370004000000120C82E5BB30E7FB9014C5E00C
:0A0E4700FFE5805408FEEF4EF02294
:100BDF00753C14753DC67B017D207C00AF1B120D4B
:0F0BEF00AE9014C6E030E7047519192275191875
:010BFE0022D4
:100AB80090E6007410F000000012092A000000906F
:100AC800E61274E8F0000000E490E613F00000007D
:100AD80090E615F000000090E614F000000090E6A3
:100AE800047480F00000007402F0000000E4F000DC
:100AF800000090E6187409F000000090E6D2740235
:100B0800F000000090E620F0000000E490E621F0FC
:100B180000000090E65B04F090E65AE04401F0E43F
:100B2800F51790E65974FFF090E658E04404F0D2C7
:100B38000012120743B202438002120BDF7F1B90A0
:0A0B480014ABE4F0A3DFFC00000092
:010B52002280
:100C820078C67C147D017BFF7A1279137E007F0483
:100C92001206DA7B037D087C00AF19120D507F0526
:100CA2007B02EFFD7C00753C14753DABAF19120D54
:100CB200AEE4F53274C62532F582E43414F583E0ED
:100CC200FF120F420532E532C3940440E7E4F532E5
:100CD2001210F474AD2532F582E43414F583EFF08A
:090CE2000532E532C3941840E725
:010CEB0022E6
:10109D0090E6047480F000000090E6187401F000F2
:1010AD00000090E60404F000000090E6187409F0CA
:0C10BD00000000E490E604F000000022B7
:040CEC00E517605F49
:100CF000120E07E5AA30E0FB90E6187401F0000040
:100D000000E4F53174AB2531F582E43414F583E069
:100D1000FF74002531F582E434F0F583EFF00531FE
:100D2000E531B41BDFE490E690F000000090E6911E
:100D3000741BF000000090E6187409F0000000E455
:0F0D4000F51790E65974FFF090E658E04404F080
:010D4F002281
:02121700D322E0
:02121900D322DE
:02121B00D322DC
:0811F70090E6BAE0F51AD322DC
:1011BE0090E740E51AF0E490E68AF090E68B04F0B2
:0211CE00D3222A
:0811FF0090E6BAE0F516D322D8
:1011D00090E740E516F0E490E68AF090E68B04F0A4
:0211E000D32218
:02121D00D322DA
:02121F00D322D8
:02122100D322D6
:1002B80090E6B9E0242E602A14603C14700302040E
:1002C8009A14700302038E14700302038B240560D2
:1002D8000302049812109D90E6F574FFF0C2040220
:1002E800049AE490E68AF090E68BF090E6A0E0208D
:0702F800E10302049A80F407
:1002FF0075324090E740E0F53390E68BE0F534E55A
:10030F0033C394405003853332753101E531C395C2
:10031F0034501474402531F582E434E7F583E0FF5F
:10032F00120F42053180E5E533603AE4F531E531EE
:10033F00C3953250141210F474402531F582E43411
:10034F00E7F583EFF0053180E5E490E68AF090E67B
:10035F008BE532F0C3E5339532F533C3944050C784
:10036F0085333280C27F01120F427F47120F42E462
:0C037F00FF120F427FB8120F4202049AD6
:03038B00751B508F
:10038E0090E6BAE0753200F533A3E0FEEE4232900D
:10039E00E6BEE0753400F535A3E0FEEE423490E69D
:1003AE00B8E064C0600302043BE5354534700302D7
:1003BE00049390E6A0E020E1F9C3E5359440E534DE
:1003CE0094005008853436853537800675360075AD
:1003DE003740E4F531C3E5319537E4953650127464
:1003EE00402531F582E434E7F58374CDF005318094
:1003FE00E4AB377AE779407EE7753CE7753D40AD73
:10040E0033AC32AF1B120DAEE490E68AF090E68B61
:10041E00E537F02533F533E5363532F532C3E535BC
:10042E009537F535E5349536F5340203B790E6B8D1
:10043E00E064407050E5354534604AE490E68AF059
:10044E0090E68BF090E6A0E020E1F990E68BE07567
:10045E003600F537FB7AE779407EE7753CE7753D68
:10046E0040AD33AC32AF1B120F77E5372533F53382
:10047E00E5363532F532C3E5359537F535E5349544
:08048E0036F53480B0751B51F6
:050496008002D322C327
:01049B00223E
:10117800C0E0C083C082D2015391EF90E65D740154
:08118800F0D082D083D0E032E8
:1009E900C0E0C083C0825391EF90E65D7404F0D0FB
:0609F90082D083D0E03241
:1011A800C0E0C083C0825391EF90E65D7402F0D036
:0611B80082D083D0E0327A
:100F0C00C0E0C083C08285100C85110D850D8285D3
:100F1C000C83A37402F085080E85090F850F82855A
:100F2C000E83A37407F05391EF90E65D7410F0D02C
:060F3C0082D083D0E032F8
:10119000C0E0C083C082D2035391EF90E65D740833
:0811A000F0D082D083D0E032D0
:100E9700C0E0C083C08290E680E030E72085080C80
:100EA70085090D850D82850C83A37402F085100ECC
:100EB70085110F850F82850E83A37407F05391EF79
:0D0EC70090E65D7420F0D082D083D0E03240
:0109FF0032C5
:010BFF0032C3
:011223003298
:011224003297
:011225003296
:011226003295
:011227003294
:011228003293
:011229003292
:01122A003291
:10101200C0E0C083C08290E658E4F05391EF90E6BE
:1010220059E030E20D12109D75170190E659E04427
:1010320004F090E65BE04401F0D082D083D0E0324D
:01122B003290
:01122C00328F
:01122D00328E
:01122E00328D
:01122F00328C
:01123000328B
:01123100328A
:011232003289
:011233003288
:011234003287
:011235003286
:011236003285
:011237003284
:011238003283
:011239003282
:01123A003281
:01123B003280
:01123C00327F
:01123D00327E
:01123E00327D
:01123F00327C
:01124000327B
:01124100327A
:011242003279
:011243003278
:060D50008F3F8C408D4135
:100D5600E4FDE53FC394205005E4F5428007E53FF6
:100D660013E433F542E5426012E540FFAE050D742B
:100D7600CA2EF582E43414F583EFF0AE050D74CA7D
:100D86002EF582E43414F583E541F0AF050D74CAFF
:100D96002FF582E43414F583EBF07A147BCAAF3F67
:080DA60012115CAF3F020ED4F4
:080F77008F388C398D3A8B3B59
:100F7F00E4F53EE53EC3953B5022053AE53AAC39E0
:100F8F007002053914FDE53D253EF582E4353CF54B
:0C0F9F0083E0FBAF38120D50053E80D7F8
:010FAB002223
:080DAE008F388C398D3A8B3B24
:100DB600E4FDF53EE538C394205005E4F53F800791
:100DC600E53813E433F53FE53F6012E539FFAE053C
:100DD6000D74CA2EF582E43414F583EFF0AE050DDA
:100DE60074CA2EF582E43414F583E53AF07A147B5E
:100DF600CAAF3812115CAB3DAA3CAD3BAF3802110D
:010E060040AB
:1010F400C0E0C0D02080FD7821D8FE2080F279089D
:101104007842D8FEA2800013D9F6FF7821D8FE30A9
:0711140080FDD0D0D0E022E5
:08120700E4F548D2E9D2AF2260
:100ED400AD0790E678E020E6F9C2E990E678E044D0
:100EE40080F0ED25E090E679F090E678E030E0F9E6
:100EF40090E678E04440F090E678E020E6F990E669
:080F040078E030E1D6D2E922C9
:100FE000AC0790E678E020E6F9E548702390E678D3
:100FF000E04480F0EC25E090E679F08D43AF03A962
:10100000077544018A458946E4F547754801D322AE
:02101000C322F9
:100FAC00AC0790E678E020E6F9E548702590E67805
:100FBC00E04480F0EC25E0440190E679F08D43AFFD
:100FCC0003A9077544018A458946E4F5477548032A
:040FDC00D322C32237
:03004B0002076049
:10076000C0E0C083C082C085C084C086758600C0DA
:10077000D075D000C000C001C002C003C006C007D1
:1007800090E678E030E20675480602084A90E6787E
:10079000E020E10CE5486402600675480702084A5B
:1007A000E54824FE605F14603624FE700302083BB7
:1007B00024FC70030208472408600302084AAB4483
:1007C000AA45A946AF4705478F82758300120700E7
:1007D00090E679F0E54765437070754805806B9049
:1007E000E679E0AB44AA45A946AE478E8275830000
:1007F00012072D754802E5436401704E90E678E0DB
:100800004420F08045E54324FEB5470790E678E0B4
:100810004420F0E54314B5470A90E678E04440F000
:1008200075480090E679E0AB44AA45A946AE478EEC
:100830008275830012072D0547800F90E678E0440B
:1008400040F075480080037548005391DFD007D011
:1008500006D003D002D001D000D0D0D086D084D032
:0808600085D082D083D0E03284
:10114000120FACE54824FA600E146006240770F311
:0C115000D322E4F548D322E4F548D32272
:10115C00120FE0E54824FA600E146006240770F3C1
:0C116C00D322E4F548D322E4F548D32256
:03000000020B539D
:0C0B5300787FE4F6D8FD758148020B9A0B
:10060A00E709F608DFFA8046E709F208DFFA803ED2
:10061A0088828C83E709F0A3DFFA8032E309F608BF
:10062A00DFFA8078E309F208DFFA807088828C8327
:10063A00E309F0A3DFFA806489828A83E0A3F608DB
:10064A00DFFA805889828A83E0A3F208DFFA804CB5
:10065A0080D280FA80C680D4806980F2803380108C
:10066A0080A680EA809A80A880DA80E280CA8033F5
:10067A0089828A83ECFAE493A3C8C582C8CCC5836D
:10068A00CCF0A3C8C582C8CCC583CCDFE9DEE7803D
:10069A000D89828A83E493A3F608DFF9ECFAA9F0BC
:1006AA00EDFB2289828A83ECFAE0A3C8C582C8CC12
:1006BA00C583CCF0A3C8C582C8CCC583CCDFEADE2B
:1006CA00E880DB89828A83E493A3F208DFF980CC8D
:1006DA0088F0EF60010E4E60C388F0ED2402B40486
:1006EA000050B9F582EB2402B4040050AF2323452D
:0606FA00822390065A73F2
:10070000BB010CE58229F582E5833AF583E02250AE
:1007100006E92582F8E622BBFE06E92582F8E222F8
:0D072000E58229F582E5833AF583E4932212
:10072D00F8BB010DE58229F582E5833AF583E8F002
:10073D00225006E92582C8F622BBFE05E92582C8AE
:02074D00F22296
:10074F00EB9FF5F0EA9E42F0E99D42F0E89C45F000
:01075F002277
:100B5F0002049CE493A3F8E493A34003F68001F20C
:100B6F0008DFF48029E493A3F85407240CC8C33397
:100B7F00C4540F4420C8834004F456800146F6DF66
:100B8F00E4800B0102040810204080900868E47E86
:100B9F00019360BCA3FF543F30E509541FFEE4935B
:100BAF00A360010ECF54C025E060A840B8E493A322
:100BBF00FAE493A3F8E493A3C8C582C8CAC583CA4D
:100BCF00F0A3C8C582C8CAC583CADFE9DEE780BE05
:0109290000CD
:00000001FF
